:020000040800F2
:1000000000800120F10700084108000841080008AD
:1000100041080008410800084108000800000000ED
:10002000000000000000000000000000410800087F
:1000300041080008000000004108000841080008CD
:1000400000000000410800084108000841080008BD
:10005000410800084108000841080008410800085C
:10006000410800084108000841080008410800084C
:10007000410800084108000841080008410800083C
:10008000410800084108000841080008000000007D
:10009000000000000000000000000000410800080F
:1000A000410800084108000841080008410800080C
:1000B00041080008410800084108000841080008FC
:1000C00041080008410800084108000841080008EC
:1000D000410800084108000841080008000000002D
:1000E000410800084108000841080008000000001D
:1000F00000000000000000000000000041080008AF
:1001000000000000410800084108000841080008FC
:1001100000000000000000000000000000000000DF
:10012000410800084108000841080008410800088B
:10013000410800080000000000000000000000006E
:10014000000000000000000000000000410800085E
:10015000410800084108000841080008410800085B
:1001600041080008410800080000000000000000ED
:10017000000000000000000000000000000000007F
:10018000000000000000000000000000000000006F
:04019000410800081A
:1001940010B5054C237833B9044B13B10448AFF3BD
:1001A40000800123237010BD18000020000000000F
:1001B4008C08000808B5034B1BB103490348AFF38F
:1001C400008008BD000000001C0000208C0800080E
:1001D40080B400AF00BFBD465DF8047B70470000EB
:1001E40080B483B000AF0346FB710B46BB7113466A
:1001F4007B71FB79052B25D8BB790F2B22D87B7912
:10020400032B1FD8FB79124A52F823301968BB79A3
:100214005B00032202FA03F3DA43FB790C4850F83B
:1002240023300A401A60FB79094A52F823301968CE
:100234007A79BB795B009A40FB79054850F8233002
:100244000A431A6000BF0C37BD465DF8047B704753
:10025400000000202DE9F00382B000AF0346FB71DB
:100264000B46BB7113467B71FB79052B73D8BB79A5
:100274000F2B70D87B790F2B6DD8BB79072B33D814
:10028400FB79384A52F823301B6A3B60BB799900EA
:100294004FF00F024FF00003A1F12006C1F120003E
:1002A40003FA01F902FA06F649EA060922FA00F00D
:1002B40049EA000902FA01F84346DA43FB7929497D
:1002C40051F8233039680A401A62FB79254A52F8FA
:1002D4002330196A7A79BB799B009A40FB792148CB
:1002E40050F823300A431A62BB79072B33D9FB79C0
:1002F4001C4A52F823305B6A3B60BB79083B990087
:100304004FF00F024FF00003A1F12006C1F12000CD
:1003140003FA01F502FA06F6354322FA00F0054322
:1003240002FA01F42346DA43FB790E4951F82330EB
:1003340039680A405A62FB790A4A52F82330596AEA
:100344007A79BB79083B9B009A40FB79054850F8C1
:1003540023300A435A6200BF0837BD46BDE8F003A4
:10036400704700BF0000002080B483B000AF034694
:10037400FB71FB79032B03D0FB79042B40F09280B3
:10038400FB79032B02D0042B44D089E0494B1B7822
:10039400002B40F08280474B01221A70464B1B68A9
:1003A400454A23F01003136000BF434B1B68424AC5
:1003B40043F08003136000BF404B1B683F4A23F4A3
:1003C400805313603D4B1B683C4A43F40053136055
:1003D4003A4B1B68394A43F48043136000BF374BE0
:1003E4001B68364A43F400631360354B1B68344A78
:1003F40023F40053136000BF324B40F23F621A6093
:10040400314BFF221A60314B1B68304A43F0010321
:10041400136042E02E4B1B78002B40D12C4B012261
:100424001A702C4B1B682B4A23F01003136000BF77
:10043400284B1B68274A43F08003136000BF264BF8
:100444001B68254A23F480531360234B1B68224AFC
:1004540043F400531360204B1B681F4A43F480434A
:10046400136000BF1C4B1B681B4A43F400631360FA
:100474001A4B1B68194A23F40053136000BF184B2E
:1004840040F23F621A60174BFF221A60164B1B683A
:10049400154A43F00103136001E000BF00E000BF10
:1004A400012300E0002318460C37BD465DF8047BA9
:1004B400704700BF34000020000400401C040040CA
:1004C40020040040280400402C0400401404004090
:1004D40035000020000800401C08004020080040AF
:1004E400280800402C0800401408004080B483B061
:1004F40000AF03460A46FB711346BB71FB79032B1D
:1005040002D0FB79042B3DD1FB79032B02D0042BC1
:100514001BD035E0BB79642B09D8BA7913461B028A
:100524009B1A1C4A1C49A1FB03135B0913601B4B58
:100534001B681A4A43F001031360194B1B68184ADD
:1005440043F48053136000BF1AE0BB79642B09D8CD
:10055400BA7913461B029B1A124A0F49A1FB0313D3
:100564005B091360104B1B680F4A43F001031360CF
:100574000E4B1B680D4A43F48053136000BF00BF49
:10058400012300E0002318460C37BD465DF8047BC8
:10059400704700BF400400401F85EB510004004039
:1005A40020040040400800400008004020080040AB
:1005B40080B483B000AF0346FB71FB79032B02D0F8
:1005C400FB79042B1BD1FB79032B02D0042B0AD01B
:1005D40013E00E4B00221A600D4B1B680C4A23F0EB
:1005E4000103136009E00B4B00221A600A4B1B68DD
:1005F400094A23F00103136000BF012300E0002334
:1006040018460C37BD465DF8047B70474004004033
:1006140000040040400800400008004080B400AFDF
:100624001F4B1B681E4A43F0010313601D4B1B68DC
:100634001C4A23F47C4323F0F3031360194B194A37
:100644001B681360184B1B68174A43F480631360DC
:10065400154B1B68144A43F4E0431360124B1B68A8
:10066400114A43F420331360104B1B680F4A43F0C4
:10067400030313600E4B0E4A1B6813600D4B1B687B
:100684000C4A43F00F0313600B4B1B680A4A43F4F4
:100694000033136000BFBD465DF8047B704700BFA4
:1006A4000038024004380240083802403038024022
:1006B40034380240403802404438024080B483B0A9
:1006C40000AF03460A46FB711346BB71FB79032B4B
:1006D40036D801A252F823F0ED06000803070008FB
:1006E400190700082F070008194B1B68BA79012164
:1006F40001FA02F21146164A0B43136021E0154B2E
:100704001B68BA79012101FA02F21146114A0B431E
:10071400136016E0104B1B68BA79012101FA02F24A
:1007240011460D4A0B4313600BE00C4B1B68BA795E
:10073400012101FA02F21146084A0B43136000E05A
:1007440000BF00BF0C37BD465DF8047B704700BF97
:100754003038024034380240603802406438024085
:1007640080B582B000AFFFF759FF01210020FFF7E9
:10077400A5FF01210220FFF7A1FF02210220FFF7BC
:100784009DFFFFF725FD022201210120FFF728FD2F
:10079400022201210120FFF75DFD0222092101202F
:1007A400FFF71EFD022209210120FFF753FD03205C
:1007B400FFF7DAFD0420FFF7D7FD0A210320FFF736
:1007C40095FE32210420FFF791FE00237B6002E0B6
:1007D4007B6801337B607B68034A9342F8D9042029
:1007E400FFF7E6FEFEE700BF1FA107000D488546A0
:1007F400AFF300800C480D490D4A002302E0D458A1
:10080400C4500433C4188C42F9D30A4A0A4C002356
:1008140001E013600432A242FBD300F011F8FFF7A9
:100824009FFFFEE700800120000000201800002048
:10083400AC0800081800002038000020FEE7000083
:1008440070B50D4D0D4C641BA4100026A64209D1B1
:100854000B4D0C4C00F018F8641BA4100026A642A3
:1008640005D170BD55F8043B98470136EEE755F8BD
:10087400043B98470136F2E7A4080008A4080008DE
:10088400A4080008A8080008F8B500BFF8BC08BC14
:100894009E467047F8B500BFF8BC08BC9E4670473A
:0408A400B90100088E
:0408A80095010008AE
:1008AC00000002400004024000080240000C02401C
:0808BC0000100240001C024084
:04000005080007F1F7
:00000001FF
