:020000040800F2
:100000000080012051070008A1070008A10700088F
:10001000A1070008A1070008A107000800000000D0
:10002000000000000000000000000000A107000820
:10003000A107000800000000A1070008A1070008B0
:1000400000000000A1070008A1070008A1070008A0
:10005000A1070008A1070008A1070008A1070008E0
:10006000A1070008A1070008A1070008A1070008D0
:10007000A1070008A1070008A1070008A1070008C0
:10008000A1070008A1070008A10700080000000060
:10009000000000000000000000000000A1070008B0
:1000A000A1070008A1070008A1070008A107000890
:1000B000A1070008A1070008A1070008A107000880
:1000C000A1070008A1070008A1070008A107000870
:1000D000A1070008A1070008A10700080000000010
:1000E000A1070008A1070008A10700080000000000
:1000F000000000000000000000000000A107000850
:1001000000000000A1070008A1070008A1070008DF
:1001100000000000000000000000000000000000DF
:10012000A1070008A1070008A1070008A10700080F
:10013000A10700080000000000000000000000000F
:10014000000000000000000000000000A1070008FF
:10015000A1070008A1070008A1070008A1070008DF
:10016000A1070008A107000800000000000000002F
:10017000000000000000000000000000000000007F
:10018000000000000000000000000000000000006F
:04019000A1070008BB
:1001940010B5054C237833B9044B13B10448AFF3BD
:1001A40000800123237010BD18000020000000000F
:1001B400EC07000808B5034B1BB103490348AFF330
:1001C400008008BD000000001C000020EC070008AF
:1001D40080B400AF00BFBD465DF8047B70470000EB
:1001E40080B483B000AF0346FB710B46BB7113466A
:1001F4007B71FB79052B25D8BB790F2B22D87B7912
:10020400032B1FD8FB79124A52F823301968BB79A3
:100214005B00032202FA03F3DA43FB790C4850F83B
:1002240023300A401A60FB79094A52F823301968CE
:100234007A79BB795B009A40FB79054850F8233002
:100244000A431A6000BF0C37BD465DF8047B704753
:10025400000000202DE9F00382B000AF0346FB71DB
:100264000B46BB7113467B71FB79052B71D8BB79A7
:100274000F2B6ED87B790F2B6BD8BB79072B33D818
:10028400FB79374A52F823301B6A3B60BB799900EB
:100294004FF00F024FF00003A1F12006C1F120003E
:1002A40003FA01F902FA06F649EA060922FA00F00D
:1002B40049EA000902FA01F84346DA43FB7928497E
:1002C40051F8233039680A401A62FB79244A52F8FB
:1002D4002330196A7A79BB799B009A40FB792048CC
:1002E40050F823300A431A62BB79072B31D9FB79C2
:1002F4001B4A52F823305B6A3B60BB7999004FF08C
:100304000F024FF00003A1F12006C1F1200003FA0F
:1003140001F502FA06F6354322FA00F0054302FA23
:1003240001F42346DA43FB790D4951F82330396847
:100334000A405A62FB790A4A52F82330596A7A7998
:10034400BB799B009A40FB79054850F823300A4357
:100354005A6200BF0837BD46BDE8F003704700BFCE
:100364000000002080B483B000AF0346FB71FB792A
:10037400032B03D0FB79042B40F08880474B1B7878
:10038400002B40F08380454B01221A70FB79032B2C
:1003940002D0042B3CD077E0414B1B68404A23F049
:1003A4001003136000BF3E4B1B683D4A43F08003BB
:1003B400136000BF3B4B1B683A4A23F4805313601D
:1003C400384B1B68374A43F400531360354B1B68A2
:1003D400344A43F48043136000BF324B1B68314AF4
:1003E40043F400631360304B1B682F4A23F400531B
:1003F400136000BF2D4B40F23F621A602C4BFF226A
:100404001A602C4B1B682B4A43F0010313603BE03A
:10041400294B1B68284A23F01003136000BF264BA6
:100424001B68254A43F08003136000BF234B1B68FD
:10043400224A23F480531360204B1B681F4A43F461
:10044400005313601D4B1B681C4A43F48043136024
:1004540000BF1A4B1B68194A43F400631360184B1E
:100464001B68174A23F40053136000BF154B40F276
:100474003F621A60144BFF221A60144B1B68134A24
:1004840043F00103136000BF012300E0002318467A
:100494000C37BD465DF8047B704700BF3400002074
:1004A400000400401C0400402004004028040040D4
:1004B4002C04004014040040000800401C080040C4
:1004C40020080040280800402C0800401408004080
:1004D40080B483B000AF03460A46FB711346BB7178
:1004E400FB79032B02D0FB79042B3DD1FB79032B41
:1004F40002D0042B1BD035E0BB79642B09D8BA7920
:1005040013461B029B1A1C4A1C49A1FB03135B09DB
:1005140013601B4B1B681A4A43F001031360194B09
:100524001B68184A43F48053136000BF1AE0BB7978
:10053400642B09D8BA7913461B029B1A124A0F4935
:10054400A1FB03135B091360104B1B680F4A43F0B4
:10055400010313600E4B1B680D4A43F48053136070
:1005640000BF00BF012300E0002318460C37BD463E
:100574005DF8047B704700BF400400401F85EB51C9
:1005840000040040200400404008004000080040EF
:100594002008004080B400AF1F4B1B681E4A43F084
:1005A400010313601D4B1B681C4A23F47C4323F096
:1005B400F3031360194B194A1B681360184B1B682B
:1005C400174A43F480631360154B1B68144A43F4C1
:1005D400E0431360124B1B68114A43F42033136049
:1005E400104B1B680F4A43F0030313600E4B0E4A73
:1005F4001B6813600D4B1B680C4A43F00F03136018
:100604000B4B1B680A4A43F40033136000BFBD461A
:100614005DF8047B704700BF003802400438024094
:100624000838024030380240343802404038024032
:100634004438024080B483B000AF03460A46FB71DD
:100644001346BB71FB79032B36D801A252F823F071
:10065400650600087B06000891060008A706000846
:10066400194B1B68BA79012101FA02F21146164AA4
:100674000B43136021E0154B1B68BA79012101FA81
:1006840002F21146114A0B43136016E0104B1B682B
:10069400BA79012101FA02F211460D4A0B431360A3
:1006A4000BE00C4B1B68BA79012101FA02F21146E6
:1006B400084A0B43136000E000BF00BF0C37BD467F
:1006C4005DF8047B704700BF303802403438024084
:1006D400603802406438024080B500AFFFF75AFF2B
:1006E40001210020FFF7A6FF01210220FFF7A2FF4E
:1006F40002210220FFF79EFFFFF76AFD022201217B
:100704000120FFF76DFD022201210120FFF7A2FD68
:10071400022209210120FFF763FD022209210120A1
:10072400FFF798FD0320FFF71DFE0420FFF71AFED4
:1007340032210320FFF7CCFE32210420FFF7C8FE4C
:1007440019210320FFF7C4FEFEE700000D4885468B
:10075400AFF300800C480D490D4A002302E0D45841
:10076400C4500433C4188C42F9D30A4A0A4C0023F7
:1007740001E013600432A242FBD300F011F8FFF74A
:10078400ABFFFEE7008001200000002018000020DD
:100794000C0800081800002038000020FEE70000C4
:1007A40070B50D4D0D4C641BA4100026A64209D152
:1007B4000B4D0C4C00F018F8641BA4100026A64244
:1007C40005D170BD55F8043B98470136EEE755F85E
:1007D400043B98470136F2E70408000804080008BF
:1007E4000408000808080008F8B500BFF8BC08BCF5
:1007F4009E467047F8B500BFF8BC08BC9E467047DB
:04080400B90100082E
:04080800950100084E
:10080C00000002400004024000080240000C0240BC
:08081C0000100240001C024024
:040000050800075197
:00000001FF
