:020000040800F2
:1000000000800120AD040008FD040008FD04000884
:10001000FD040008FD040008FD04000800000000C5
:10002000000000000000000000000000FD040008C7
:10003000FD04000800000000FD040008FD040008A5
:1000400000000000FD040008FD040008FD04000895
:10005000FD040008FD040008FD040008FD0400087C
:10006000FD040008FD040008FD040008FD0400086C
:10007000FD040008FD040008FD040008FD0400085C
:10008000FD040008FD040008FD0400080000000055
:10009000000000000000000000000000FD04000857
:1000A000FD040008FD040008FD040008FD0400082C
:1000B000FD040008FD040008FD040008FD0400081C
:1000C000FD040008FD040008FD040008FD0400080C
:1000D000FD040008FD040008FD0400080000000005
:1000E000FD040008FD040008FD04000800000000F5
:1000F000000000000000000000000000FD040008F7
:1001000000000000FD040008FD040008FD040008D4
:1001100000000000000000000000000000000000DF
:10012000FD040008FD040008FD040008FD040008AB
:10013000FD040008000000000000000000000000B6
:10014000000000000000000000000000FD040008A6
:10015000FD040008FD040008FD040008FD0400087B
:10016000FD040008FD04000800000000000000007D
:10017000000000000000000000000000000000007F
:10018000000000000000000000000000000000006F
:04019000FD04000862
:1001940010B5054C237833B9044B13B10448AFF3BD
:1001A40000800123237010BD18000020000000000F
:1001B4004805000808B5034B1BB103490348AFF3D6
:1001C400008008BD000000001C0000204805000855
:1001D40070470000052810B511D80F290FD8032A3D
:1001E4000DD8074B53F820304900186803248C407D
:1001F40020EA0400186018688A4002431A6010BD9F
:1002040000000020052810B515D841EA02030F2B81
:1002140011D80D4B8C0053F820300F20A040072933
:100224006FEA000002FA04F206D8196A0140196262
:10023400196A0A431A6210BD596A01405962596A1F
:100244000A435A62F7E700BF00000020A8B9264A13
:1002540013789B0719D14FF0804341F21111996132
:10026400D9614AF6AA2119627C21C3F8281C1378A3
:1002740043F00303137001207047012806D11A4A82
:10028400137813F00C0F1AD0002070470228FBD10A
:10029400154A137813F0300FF6D14FF08043112133
:1002A4000120C3F8140CC3F8181C0A21C3F8201C3D
:1002B4007C21C3F8281C137843F0300311E04FF07D
:1002C400804341F21111C3F8181CC3F81C1C4AF6F0
:1002D400AA21C3F8201C7C21C3F8281C137843F0FE
:1002E4000C031370704700BF340000200D4B1B78C3
:1002F400032B02D170B1002070470C2BFBD10128D5
:10030400F9D14FF08042D2F8003C43F00103C2F827
:10031400003C70474FF080420120136843F0010312
:100324001360704734000020244B1B78032B02D148
:1003340028B1002070470C2BFBD10128F9D10329E7
:10034400F7D802291FD003292AD001294FF080436E
:100354000ED0012805D01A6A42F001021A62012067
:100364007047D3F8202C42F00102C3F8202C7047C8
:10037400012803D01A6A42F01002EFE7D3F8202CC8
:1003840042F01002F1E701284FF0804303D01A6ACB
:1003940042F48072E2E7D3F8202C42F48072E4E75E
:1003A40001284FF0804303D01A6A42F48052D5E703
:1003B400D3F8202C42F48052D7E700BF3400002049
:1003C4001D4BD3F8002842F00102C3F80028D3F8EB
:1003D400042822F47C4222F0F302C3F80428D3F860
:1003E4000428C3F80428D3F8082842F48062C3F828
:1003F4000828D3F8082842F4E042C3F80828D3F8C0
:10040400082842F42032C3F80828D3F8302842F0F0
:100414000302C3F83028D3F83428C3F83428D3F8B7
:10042400402842F00F02C3F84028D3F8442842F48D
:100434000032C3F8442870470030024008B5FFF783
:10044400BFFFFFF7C5FE002108460222FFF7C2FEE8
:10045400002108460222FFF7D5FE022201210020D6
:10046400FFF7B8FE022201210020FFF7CBFE022293
:1004740011460020FFF7AEFE022211460020FFF7CE
:10048400C1FE0120FFF7E2FE0120FFF72FFF00214C
:100494000120FFF749FF01210846FFF745FF02212C
:1004A4000120FFF741FFFEE70D488546AFF30080CA
:1004B4000C480D490D4A002302E0D458C4500433BB
:1004C400C4188C42F9D30A4A0A4C002301E0136091
:1004D4000432A242FBD300F011F8FFF7AFFFFEE7AE
:1004E400008001200000002018000020680500089A
:1004F4001800002038000020FEE7000070B50D4D04
:100504000D4C641BA4100026A64209D10B4D0C4CC3
:1005140000F018F8641BA4100026A64205D170BD93
:1005240055F8043B98470136EEE755F8043B9847E5
:100534000136F2E760050008600500086005000860
:1005440064050008F8B500BFF8BC08BC9E467047B7
:0C055400F8B500BFF8BC08BC9E4670471C
:04056000B9010008D5
:0405640095010008F5
:10056800000002400004024000080240000C024063
:0805780000100240001C0240CB
:04000005080004AD3E
:00000001FF
