:020000040800F2
:1000000000000120950E0008E50E0008E50E00082E
:10001000E50E0008E50E0008E50E000800000000EF
:10002000000000000000000000000000E50E0008D5
:10003000E50E000800000000E50E0008E50E0008CF
:1000400000000000E50E0008E50E0008E50E0008BF
:10005000E50E0008E50E0008E50E0008E50E0008B4
:10006000E50E0008E50E0008E50E0008E50E0008A4
:10007000E50E0008E50E0008E50E0008E50E000894
:10008000E50E0008E50E0008E50E0008000000007F
:10009000000000000000000000000000E50E000865
:1000A000E50E000837070008E50E0008E50E000819
:1000B00029070008E50E0008E50E0008E50E000817
:1000C000E50E0008E50E0008E50E0008E50E000844
:1000D000E50E0008E50E0008E50E0008000000002F
:1000E000E50E0008E50E0008E50E0008000000001F
:1000F000000000000000000000000000E50E000805
:1001000000000000E50E0008CD050008E50E00081F
:1001100000000000000000000000000000000000DF
:10012000E50E0008E50E0008E50E0008E50E0008E3
:10013000E50E0008000000000000000000000000C4
:10014000000000000000000000000000E50E0008B4
:10015000E50E0008E50E0008E50E0008E50E0008B3
:10016000E50E0008E50E0008000000000000000099
:10017000000000000000000000000000000000007F
:10018000000000000000000000000000000000006F
:04019000E50E000870
:1001940010B5054C237833B9044B13B10448AFF3BD
:1001A40000800123237010BD200000200000000007
:1001B400300F000808B5034B1BB103490348AFF3E4
:1001C400008008BD0000000024000020300F00085B
:1001D40080B483B000AF0346FB710B46BB7113467A
:1001E4007B71FB79052B25D8BB790F2B22D87B7922
:1001F400032B1FD8FB79124A52F823301968BB79B4
:100204005B00032202FA03F3DA43FB790C4850F84B
:1002140023300A401A60FB79094A52F823301968DE
:100224007A79BB795B009A40FB79054850F8233012
:100234000A431A6000BF0C37BD465DF8047B704763
:100244000000002080B483B000AF0346FB710B466E
:10025400BB7113467B71FB79052B20D8BB790F2B1F
:100264001DD8FB79114A52F823305969BB79012210
:1002740002FA03F3DA43FB790C4850F823300A40BE
:100284005A61FB79094A52F8233059697A79BB7962
:100294009A40FB79054850F823300A435A6100BF5D
:1002A4000C37BD465DF8047B704700BF000000209A
:1002B4002DE9F00382B000AF0346FB710B46BB711E
:1002C40013467B71FB79052B73D8BB790F2B70D840
:1002D4007B790F2B6DD8BB79072B33D8FB79384A40
:1002E40052F823301B6A3B60BB7999004FF00F0230
:1002F4004FF00003A1F12006C1F1200003FA01F937
:1003040002FA06F649EA060922FA00F049EA000967
:1003140002FA01F84346DA43FB79294951F82330BC
:1003240039680A401A62FB79254A52F82330196A5F
:100334007A79BB799B009A40FB79214850F82330A5
:100344000A431A62BB79072B33D9FB791C4A52F84A
:1003540023305B6A3B60BB79083B99004FF00F0286
:100364004FF00003A1F12006C1F1200003FA01F5CA
:1003740002FA06F6354322FA00F0054302FA01F4C4
:100384002346DA43FB790E4951F8233039680A4091
:100394005A62FB790A4A52F82330596A7A79BB794E
:1003A400083B9B009A40FB79054850F823300A43E8
:1003B4005A6200BF0837BD46BDE8F003704700BF6E
:1003C4000000002080B483B000AF03460A46FB71EE
:1003D4001346BB71574B1B7803F00303032B02D165
:1003E400FB79002B13D0534B1B7803F00C030C2B1D
:1003F40002D1FB79012B0AD04E4B1B7803F030035A
:10040400302B40F09080FB79022B40F08C80BB793C
:10041400032B00F28880BB79032B00F2808001A2B9
:1004240052F823F0390400087B040008B3040008E0
:10043400EB040008FB79022B14D0022B19DC002BEF
:1004440002D0012B07D014E03B4B1B683A4A23F03F
:10045400010313600EE0394B1B68384A23F0010393
:10046400136007E0354B1B68344A23F00103136023
:1004740000E000BF55E0FB79022B14D0022B14DC02
:10048400002B02D0012B07D00FE02B4B1B682A4A0C
:1004940023F01003136009E0284B1B68274A23F05C
:1004A4001003136002E000233EE000BF39E0FB7953
:1004B400022B14D0022B14DC002B02D0012B07D00A
:1004C4000FE01D4B1B681C4A23F48073136009E082
:1004D4001A4B1B68194A23F48073136002E000234B
:1004E40022E000BF1DE0FB79022B14D0022B14DCA8
:1004F400002B02D0012B07D00FE00F4B1B680E4AD4
:1005040023F48053136009E00C4B1B680B4A23F45B
:100514008053136002E0002306E000BF01E00023E3
:1005240002E0012300E0002318460C37BD465DF8C5
:10053400047B70473C00002020000040200C004059
:1005440080B483B000AF0346FB711D4B1B78032BB3
:1005540002D1FB79002B06D0194B1B780C2B27D129
:10056400FB79012B24D1FB79022B16D0022B1BDC47
:10057400002B02D0012B09D016E04FF080431B68FA
:100584004FF0804223F0010313600FE00D4B1B6812
:100594000C4A23F00103136008E00A4B1B68094A64
:1005A40023F00103136001E0002302E0012300E0D3
:1005B400002318460C37BD465DF8047B704700BF26
:1005C4003C000020000C004080B500AF4F4B0022DF
:1005D4001A604F4B1B78002B3BD14E4B1B685B08BA
:1005E40003F00103012B07D14B4B1B684B4A1360EB
:1005F400474B01221A7087E0464B1B689B0803F0A7
:100604000103012B07D1464B1B68444A5360404BFE
:1006140001221A7078E03F4B1B68DB0803F00103EA
:10062400012B07D13E4B1B683C4A9360384B012297
:100634001A7069E0374B1B681B0903F00103012B97
:1006440062D1374B1B68354AD360314B01221A7093
:100654005AE02F4B1B78012B56D12E4B1B685B089D
:1006640003F00103012B0ED12B4B1B682B4A1360A3
:1006740000210120FFF7A6FE0120FFF761FF244BB4
:1006840000221A7040E0234B1B689B0803F001030F
:10069400012B0ED1224B1B68204A536001210120FB
:1006A400FFF790FE0120FFF74BFF194B00221A7051
:1006B4002AE0184B1B68DB0803F00103012B0ED161
:1006C400174B1B68154A936002210120FFF77AFE3D
:1006D4000120FFF735FF0E4B00221A7014E00D4B7A
:1006E4001B681B0903F00103012B0DD10C4B1B6884
:1006F4000A4AD36003210120FFF764FE0120FFF7BB
:100704001FFF034B00221A7000BF80BD240C004061
:1007140050000020100C0040340C00404000002029
:10072400380C004080B400AF00BFBD465DF8047BC8
:10073400704780B400AF00BFBD465DF8047B7047CE
:1007440080B582B000AF0346FB715C4B1B7803F0AD
:100754000F03002B02D1FB79002B0AD0574B1B78D7
:1007640003F0F003002B40F0A380FB79012B40F051
:100774009F80FB79002B02D0012B08D00FE04F4B58
:100784001B7843F00F03DAB24C4B1A7009E04B4B61
:100794001B7863F00F03DAB2484B1A7001E00023B0
:1007A40087E0FB79464A12F82330C3F30303DBB234
:1007B4001846FB79424A12F82330C3F30313DBB221
:1007C40001221946FFF704FDFB793D4A12F8233054
:1007D400C3F30303DBB21846FB79394A12F823301A
:1007E400C3F30313DBB200221946FFF72BFDFB7999
:1007F400334A9B0013445B78C3F30303DBB218460C
:10080400FB792F4A9B0013445B78C3F30313DBB2D9
:1008140001221946FFF7DCFCFB79294A9B001344AB
:100824005B78C3F30303DBB21846FB79244A9B00CD
:1008340013445B78C3F30313DBB200221946FFF7BA
:1008440001FDFB791E4A9B0013449B78C3F3030309
:10085400DBB21846FB791A4A9B0013449B78C3F316
:100864000313DBB202221946FFF7B2FCFB79144AE8
:100874009B0013449B78C3F30303DBB21846FB7954
:100884000F4A9B0013449B78C3F30313DBB2022289
:100894001946FFF70DFDFB79094A9B001344DB78E9
:1008A400C3F30303DBB2184600F01AF9012300E096
:1008B400002318460837BD4680BD00BF5100002004
:1008C4001800002080B582B000AF03460A46FB71D1
:1008D4001346BB71274B1B7803F00F030F2B02D178
:1008E400FB79002B08D0234B1B7803F0F003F02B8B
:1008F4003AD1FB79012B37D1FB791F4A12F8233007
:10090400C3F30303DBB21846FB791B4A12F8233006
:10091400C3F30313DBB201221946FFF793FCFB79FF
:10092400154A9B0013445B78C3F30303DBB21846F8
:10093400FB79114A9B0013445B78C3F30313DBB2C6
:1009440000221946FFF77EFCFB790B4A9B001344F7
:10095400DB78C3F30303DBB21A46BB7919461046AE
:1009640000F080F9012300E0002318460837BD4653
:1009740080BD00BF510000201800002080B582B067
:1009840000AF03460A46FB711346BB71274B1B7825
:1009940003F00F030F2B02D1FB79002B08D0234B5C
:1009A4001B7803F0F003F02B3AD1FB79012B37D1FC
:1009B400FB791F4A12F82330C3F30303DBB2184652
:1009C400FB791B4A12F82330C3F30313DBB2002272
:1009D4001946FFF737FCFB79154A9B0013445B78F3
:1009E400C3F30303DBB21846FB79114A9B0013449B
:1009F4005B78C3F30313DBB201221946FFF722FC31
:100A0400FB790B4A9B001344DB78C3F30303DBB28B
:100A14001A46BB791946104600F024F9012300E078
:100A2400002318460837BD4680BD00BF5100002092
:100A34001800002080B582B000AF0346FB71264B3E
:100A44001B7803F00F030F2B02D1FB79002B08D086
:100A5400214B1B7803F0F003F02B37D1FB79012BEA
:100A640034D1FB791D4A12F82330C3F30303DBB2FC
:100A74001846FB79194A12F82330C3F30313DBB287
:100A840000221946FFF7DEFBFB79144A9B0013444E
:100A94005B78C3F30303DBB21846FB790F4A9B0070
:100AA40013445B78C3F30313DBB200221946FFF748
:100AB400C9FBFB79094A9B001344DB78C3F30303A6
:100AC400DBB2184600F030F9012300E00023184699
:100AD4000837BD4680BD00BF51000020180000202B
:100AE40080B483B000AF0346FB71FB79032B03D0C2
:100AF400FB79042B40F09280FB79032B02D0042B6A
:100B040044D089E0494B1B78002B40F08280474B4E
:100B140001221A70464B1B68454A23F010031360E8
:100B240000BF434B1B68424A43F08003136000BF7D
:100B3400404B1B683F4A23F4805313603D4B1B68B2
:100B44003C4A43F4005313603A4B1B68394A43F45C
:100B54008043136000BF374B1B68364A43F400637D
:100B64001360354B1B68344A23F40053136000BFF1
:100B7400324B40F23F621A60314BFF221A60314B14
:100B84001B68304A43F00103136042E02E4B1B788C
:100B9400002B40D12C4B01221A702C4B1B682B4A82
:100BA40023F01003136000BF284B1B68274A43F04F
:100BB4008003136000BF264B1B68254A23F480532F
:100BC4001360234B1B68224A43F400531360204BE9
:100BD4001B681F4A43F48043136000BF1C4B1B680F
:100BE4001B4A43F4006313601A4B1B68194A23F42D
:100BF4000053136000BF184B40F23F621A60174B5A
:100C0400FF221A60164B1B68154A43F00103136058
:100C140001E000BF00E000BF012300E0002318460C
:100C24000C37BD465DF8047B704700BF52000020BE
:100C3400000400401C04004020040040280400403C
:100C44002C0400401404004053000020000800401D
:100C54001C08004020080040280800402C080040E0
:100C64001408004080B483B000AF03460A46FB7109
:100C74001346BB71FB79032B02D0FB79042B3DD1C6
:100C8400FB79032B02D0042B1BD035E0BB79642BFA
:100C940009D8BA7913461B029B1A1C4A1C49A1FBAA
:100CA40003135B0913601B4B1B681A4A43F00103CF
:100CB4001360194B1B68184A43F48053136000BF38
:100CC4001AE0BB79642B09D8BA7913461B029B1A24
:100CD400124A0F49A1FB03135B091360104B1B68F5
:100CE4000F4A43F0010313600E4B1B680D4A43F493
:100CF4008053136000BF00BF012300E000231846A7
:100D04000C37BD465DF8047B704700BF40040040CB
:100D14001F85EB51000400402004004040080040BF
:100D2400000800402008004080B483B000AF0346B0
:100D3400FB71FB79032B02D0FB79042B1BD1FB79CC
:100D4400032B02D0042B0AD013E00E4B00221A60AE
:100D54000D4B1B680C4A23F00103136009E00B4B95
:100D640000221A600A4B1B68094A23F0010313602E
:100D740000BF012300E0002318460C37BD465DF890
:100D8400047B7047400400400004004040080040D9
:100D94000008004080B400AF234B1B68224A43F094
:100DA4000103136000BF204B1B6803F00203002BF8
:100DB400F9D01E4B1B681D4A23F47C4323F0F30334
:100DC40013601A4B194A1B681360194B1B68184AA5
:100DD40043F080031360164B1B68154A43F4805399
:100DE4001360134B1B68124A43F400431360114B06
:100DF4001B68104A43F0030313600F4B0E4A1B6831
:100E040013600E4B1B680D4A43F00F0313600C4B29
:100E14001B680B4A43F4003343F01003136000BF14
:100E2400BD465DF8047B7047003802400438024038
:100E3400083802403038024034380240403802401A
:100E44004438024080B582B000AFFFF7A3FF002012
:100E5400FFF776FC0120FFF773FC46210020FFF723
:100E640031FD32210120FFF789FD00237B6002E080
:100E74007B6801337B607B68044A9342F8D9002085
:100E8400FFF7D8FD0120FFF7D5FDFEE71FA10700FE
:100E94000D488546AFF300800C480D490D4A0023E8
:100EA40002E0D458C4500433C4188C42F9D30A4A1B
:100EB4000A4C002301E013600432A242FBD300F089
:100EC40011F8FFF7BFFFFEE700000120000000203B
:100ED40020000020500F00082000002054000020B3
:100EE400FEE7000070B50D4D0D4C641BA4100026E8
:100EF400A64209D10B4D0C4C00F018F8641BA41049
:100F04000026A64205D170BD55F8043B984701362A
:100F1400EEE755F8043B98470136F2E7480F00081E
:100F2400480F0008480F00084C0F0008F8B500BF30
:100F3400F8BC08BC9E467047F8B500BFF8BC08BCB6
:040F44009E4670470E
:040F4800B9010008E3
:040F4C009501000803
:100F5000000002400004024000080240000C024071
:100F600000100240001C024001211103C1D1910474
:0400000508000E954C
:00000001FF
