:020000040800F2
:1000000000000120290A0008790A0008790A00087E
:10001000790A0008790A0008790A0008000000003F
:10002000000000000000000000000000790A000845
:10003000790A000800000000790A0008790A00081F
:1000400000000000790A0008790A0008790A00080F
:10005000790A0008790A0008790A0008790A000874
:10006000790A0008790A0008790A0008790A000864
:10007000790A0008790A0008790A0008790A000854
:10008000790A0008790A0008790A000800000000CF
:10009000000000000000000000000000790A0008D5
:1000A000790A0008CB060008790A0008790A0008D6
:1000B000BD060008790A0008790A0008790A0008D4
:1000C000790A0008790A0008790A0008790A000804
:1000D000790A000865090008790A00080000000094
:1000E000790A0008790A0008790A0008000000006F
:1000F000000000000000000000000000790A000875
:1001000000000000790A000861050008790A00086B
:1001100000000000000000000000000000000000DF
:10012000790A0008790A0008790A0008790A0008A3
:10013000790A000800000000000000000000000034
:10014000000000000000000000000000790A000824
:10015000790A0008790A0008790A0008790A000873
:10016000790A0008790A0008000000000000000079
:10017000000000000000000000000000000000007F
:10018000000000000000000000000000000000006F
:04019000790A0008E0
:1001940010B5054C237833B9044B13B10448AFF3BD
:1001A40000800123237010BD240000200000000003
:1001B400C40A000808B5034B1BB103490348AFF355
:1001C400008008BD0000000028000020C40A0008C8
:1001D40080B483B000AF0346FB710B46BB7113467A
:1001E4007B71FB79052B25D8BB790F2B22D87B7922
:1001F400032B1FD8FB79124A52F823301968BB79B4
:100204005B00032202FA03F3DA43FB790C4850F84B
:1002140023300A401A60FB79094A52F823301968DE
:100224007A79BB795B009A40FB79054850F8233012
:100234000A431A6000BF0C37BD465DF8047B704763
:10024400000000202DE9F00382B000AF0346FB71EB
:100254000B46BB7113467B71FB79052B73D8BB79B5
:100264000F2B70D87B790F2B6DD8BB79072B33D824
:10027400FB79384A52F823301B6A3B60BB799900FA
:100284004FF00F024FF00003A1F12006C1F120004E
:1002940003FA01F902FA06F649EA060922FA00F01D
:1002A40049EA000902FA01F84346DA43FB7929498D
:1002B40051F8233039680A401A62FB79254A52F80A
:1002C4002330196A7A79BB799B009A40FB792148DB
:1002D40050F823300A431A62BB79072B33D9FB79D0
:1002E4001C4A52F823305B6A3B60BB79083B990097
:1002F4004FF00F024FF00003A1F12006C1F12000DE
:1003040003FA01F502FA06F6354322FA00F0054332
:1003140002FA01F42346DA43FB790E4951F82330FB
:1003240039680A405A62FB790A4A52F82330596AFA
:100334007A79BB79083B9B009A40FB79054850F8D1
:1003440023300A435A6200BF0837BD46BDE8F003B4
:10035400704700BF0000002080B483B000AF0346A4
:100364000A46FB711346BB71574B1B7803F003031A
:10037400032B02D1FB79002B13D0534B1B7803F0D2
:100384000C030C2B02D1FB79012B0AD04E4B1B78AA
:1003940003F03003302B40F09080FB79022B40F0C7
:1003A4008C80BB79032B00F28880BB79032B00F28D
:1003B400808001A252F823F0CD0300080F04000846
:1003C400470400087F040008FB79022B14D0022B99
:1003D40019DC002B02D0012B07D014E03B4B1B6827
:1003E4003A4A23F0010313600EE0394B1B68384A84
:1003F40023F00103136007E0354B1B68344A23F0F4
:100404000103136000E000BF55E0FB79022B14D018
:10041400022B14DC002B02D0012B07D00FE02B4B56
:100424001B682A4A23F01003136009E0284B1B6859
:10043400274A23F01003136002E000233EE000BFCC
:1004440039E0FB79022B14D0022B14DC002B02D0F0
:10045400012B07D00FE01D4B1B681C4A23F480734B
:10046400136009E01A4B1B68194A23F48073136064
:1004740002E0002322E000BF1DE0FB79022B14D030
:10048400022B14DC002B02D0012B07D00FE00F4B02
:100494001B680E4A23F48053136009E00C4B1B685D
:1004A4000B4A23F48053136002E0002306E000BFEC
:1004B40001E0002302E0012300E0002318460C378A
:1004C400BD465DF8047B70474000002020000040DA
:1004D400200C004080B483B000AF0346FB711D4B79
:1004E4001B78032B02D1FB79002B06D0194B1B7808
:1004F4000C2B27D1FB79012B24D1FB79022B16D0AD
:10050400022B1BDC002B02D0012B09D016E04FF08C
:1005140080431B684FF0804223F0010313600FE017
:100524000D4B1B680C4A23F00103136008E00A4BCF
:100534001B68094A23F00103136001E0002302E071
:10054400012300E0002318460C37BD465DF8047B08
:10055400704700BF40000020000C004080B500AF91
:100564004F4B00221A604F4B1B78002B3BD14E4B54
:100574001B685B0803F00103012B07D14B4B1B687D
:100584004B4A1360474B01221A7087E0464B1B68A5
:100594009B0803F00103012B07D1464B1B68444A17
:1005A4005360404B01221A7078E03F4B1B68DB0814
:1005B40003F00103012B07D13E4B1B683C4A9360B7
:1005C400384B01221A7069E0374B1B681B0903F092
:1005D4000103012B62D1374B1B68354AD360314B81
:1005E40001221A705AE02F4B1B78012B56D12E4B47
:1005F4001B685B0803F00103012B0ED12B4B1B6816
:100604002B4A136000210120FFF7A6FE0120FFF70B
:1006140061FF244B00221A7040E0234B1B689B08A7
:1006240003F00103012B0ED1224B1B68204A5360B7
:1006340001210120FFF790FE0120FFF74BFF194B2A
:1006440000221A702AE0184B1B68DB0803F0010330
:10065400012B0ED1174B1B68154A93600221012010
:10066400FFF77AFE0120FFF735FF0E4B00221A70C8
:1006740014E00D4B1B681B0903F00103012B0DD182
:100684000C4B1B680A4AD36003210120FFF764FE68
:100694000120FFF71FFF034B00221A7000BF80BD2B
:1006A400240C004054000020100C0040340C004086
:1006B40044000020380C004080B400AF00BFBD46A9
:1006C4005DF8047B704780B400AF00BFBD465DF8A1
:1006D400047B704780B485B000AF0346FB71FB799F
:1006E400542B20D8FB795B09FB73FB7B5B01DBB2EA
:1006F400FA79D31ABB73FB7B9B0003F1604303F5C8
:1007040061431A68BB7B012101FA03F31846FB7BA2
:100714009B0003F1604303F56143194642EA000379
:100724000B60012300E0002318461437BD465DF832
:10073400047B704780B400AF234B1B68224A43F00C
:100744000103136000BF204B1B6803F00203002B5E
:10075400F9D01E4B1B681D4A23F47C4323F0F3039A
:1007640013601A4B194A1B681360194B1B68184A0B
:1007740043F080031360164B1B68154A43F48053FF
:100784001360134B1B68124A43F400431360114B6C
:100794001B68104A43F0030313600F4B0E4A1B6897
:1007A40013600E4B1B680D4A43F00F0313600C4B90
:1007B4001B680B4A43F4003343F01003136000BF7B
:1007C400BD465DF8047B704700380240043802409F
:1007D4000838024030380240343802404038024081
:1007E4004438024080B483B000AF0346FB71FB7908
:1007F400002B2DD11A4B1B7803F00303002B27D1B8
:10080400FB79022B1FD0022B1BDC002B02D0012B07
:100814001BD016E0FB79134A52F8233040F60352FA
:100824009A60FB790F4A52F823304AF22C02DA60BC
:100834000B4B1B7843F00303DAB2094B1A70012304
:1008440007E0002305E000BF00E000BF002300E054
:10085400002318460C37BD465DF8047B704700BF83
:100864005C0000201800002080B483B000AF034671
:100874000A46FB711346BB71FB79002B19D1104B4F
:100884001B7803F00303032B13D1FB790D4A52F8B1
:1008940023301B689B0903F00103012B07D1FB796B
:1008A400084A52F82330BA795A60012302E000233F
:1008B40000E0002318460C37BD465DF8047B704702
:1008C4005C0000201800002080B483B000AF034611
:1008D4003960FB71FB79002B0FD10B4B1B7803F0B4
:1008E4000303032B09D1FB79084A52F823305B68D0
:1008F400DAB23B681A70012300E0002318460C3773
:10090400BD465DF8047B70475C00002018000020A1
:1009140080B483B000AF03463960FB713B68002BA1
:1009240014D0FB79022B0DD0022B0DDC002B02D04E
:10093400012B05D008E0094A3B681360012306E057
:10094400002304E0002302E0002300E00023184613
:100954000C37BD465DF8047B704700BF580000208B
:1009640080B500AF044B1B68002B02D0024B1B6800
:10097400984700BF80BD00BF5800002080B582B0FA
:1009840000AF0023BB80164A3B1D1360FFF7D2FE65
:10099400022209210020FFF71BFC07220921002065
:1009A400FFF750FC02220A210020FFF711FC072266
:1009B4000A210020FFF746FC2520FFF78BFE0020CC
:1009C400FFF710FF07490020FFF7A2FF4221002094
:1009D400FFF74AFF43210020FFF746FFF6E700BF79
:1009E40060000020ED09000880B500AF0B4B1B78B8
:1009F400022B02D1094B00221A70094B1B68074ACB
:100A04001278134419460020FFF75EFF034B1B784E
:100A14000133DAB2014B1A7000BF80BD64000020BC
:100A2400600000200D488546AFF300800C480D4956
:100A34000D4A002302E0D458C4500433C4188C4235
:100A4400F9D30A4A0A4C002301E013600432A2429B
:100A5400FBD300F011F8FFF791FFFEE7000001203F
:100A64000000002024000020E40A000824000020E4
:100A740068000020FEE7000070B50D4D0D4C641BAE
:100A8400A4100026A64209D10B4D0C4C00F018F816
:100A9400641BA4100026A64205D170BD55F8043B82
:100AA40098470136EEE755F8043B98470136F2E7DC
:100AB400DC0A0008DC0A0008DC0A0008E00A000876
:100AC400F8B500BFF8BC08BC9E467047F8B500BF37
:080AD400F8BC08BC9E46704707
:040ADC00B901000854
:040AE0009501000874
:100AE400000002400004024000080240000C0240E2
:100AF40000100240001C024000100140004400406D
:040B04000014014098
:0400000508000A29BC
:00000001FF
