:020000040800F2
:10000000008001200103000851030008510300088B
:1000100051030008510300085103000800000000CC
:100020000000000000000000000000005103000874
:1000300051030008000000005103000851030008AC
:10004000000000005103000851030008510300089C
:100050005103000851030008510300085103000830
:100060005103000851030008510300085103000820
:100070005103000851030008510300085103000810
:10008000510300085103000851030008000000005C
:100090000000000000000000000000005103000804
:1000A00051030008510300085103000851030008E0
:1000B00051030008510300085103000851030008D0
:1000C00051030008510300085103000851030008C0
:1000D000510300085103000851030008000000000C
:1000E00051030008510300085103000800000000FC
:1000F00000000000000000000000000051030008A4
:1001000000000000510300085103000851030008DB
:1001100000000000000000000000000000000000DF
:10012000510300085103000851030008510300085F
:100130005103000800000000000000000000000063
:100140000000000000000000000000005103000853
:10015000510300085103000851030008510300082F
:1001600051030008510300080000000000000000D7
:10017000000000000000000000000000000000007F
:10018000000000000000000000000000000000006F
:04019000510300080F
:1001940010B5054C237833B9044B13B10448AFF3BD
:1001A40000800123237010BD18000020000000000F
:1001B4009C03000808B5034B1BB103490348AFF384
:1001C400008008BD000000001C0000209C03000803
:1001D400074B1B6802221A600220002200215A6089
:1001E4009A60DA605A619A61DA61C3E9080170477A
:1001F40000000020B8B91C4A1378F02B00D0D3B902
:100204004FF0804308211960012040F201119861E8
:10021400D9614AF6AA2119620F21C3F8281C137860
:100224000B4313707047012804D10F4A13780F2B26
:1002340002D00BB1002070474FF080430821C3F86F
:10024400001C0121C3F8181C40F20111C3F81C1C46
:100254004AF6AA21C3F8201C0F21C3F8281C1378DE
:1002640063F00F03DDE700BF340000201D4BD3F81B
:10027400002842F00102C3F80028D3F8042822F42D
:100284007C4222F0F302C3F80428D3F80428C3F80C
:100294000428D3F8082842F48062C3F80828D3F865
:1002A400082842F4E042C3F80828D3F8082842F4A6
:1002B4002032C3F80828D3F8302842F00302C3F8E8
:1002C4003028D3F83428C3F83428D3F8402842F02F
:1002D4000F02C3F84028D3F8442842F40032C3F88C
:1002E400442870470030024008B5FFF7BFFFFFF70E
:1002F4006FFF0020FFF77EFFFEE700000D488546F4
:10030400AFF300800C480D490D4A002302E0D45895
:10031400C4500433C4188C42F9D30A4A0A4C00234B
:1003240001E013600432A242FBD300F011F8FFF79E
:10033400DBFFFEE700800120000000201800002001
:10034400BC0300081800002038000020FEE700006D
:1003540070B50D4D0D4C641BA4100026A64209D1A6
:100364000B4D0C4C00F018F8641BA4100026A64298
:1003740005D170BD55F8043B98470136EEE755F8B2
:10038400043B98470136F2E7B4030008B4030008BD
:10039400B4030008B8030008F8B500BFF8BC08BCF3
:1003A4009E467047F8B500BFF8BC08BC9E4670472F
:0403B400B901000883
:0403B80095010008A3
:1003BC00000002400004024000080240000C024011
:0803CC0000100240001C024079
:0400000508000301EB
:00000001FF
